{
  "contractName": "Bidding",
  "abi": [
    {
      "inputs": [
        {
          "internalType": "string",
          "name": "nm",
          "type": "string"
        },
        {
          "internalType": "string",
          "name": "desc",
          "type": "string"
        },
        {
          "internalType": "uint256",
          "name": "dur",
          "type": "uint256"
        },
        {
          "internalType": "uint256",
          "name": "sBid",
          "type": "uint256"
        }
      ],
      "payable": false,
      "stateMutability": "nonpayable",
      "type": "constructor"
    },
    {
      "anonymous": false,
      "inputs": [
        {
          "indexed": false,
          "internalType": "address",
          "name": "addr",
          "type": "address"
        },
        {
          "indexed": false,
          "internalType": "string",
          "name": "nm",
          "type": "string"
        },
        {
          "indexed": false,
          "internalType": "uint256",
          "name": "bidAmt",
          "type": "uint256"
        }
      ],
      "name": "BidFail",
      "type": "event"
    },
    {
      "anonymous": false,
      "inputs": [
        {
          "indexed": false,
          "internalType": "address",
          "name": "addr",
          "type": "address"
        },
        {
          "indexed": false,
          "internalType": "string",
          "name": "nm",
          "type": "string"
        },
        {
          "indexed": false,
          "internalType": "uint256",
          "name": "newHighBid",
          "type": "uint256"
        }
      ],
      "name": "HighBidChanged",
      "type": "event"
    },
    {
      "constant": true,
      "inputs": [],
      "name": "getHighBid",
      "outputs": [
        {
          "internalType": "uint256",
          "name": "",
          "type": "uint256"
        }
      ],
      "payable": false,
      "stateMutability": "view",
      "type": "function"
    },
    {
      "constant": false,
      "inputs": [
        {
          "internalType": "string",
          "name": "name",
          "type": "string"
        },
        {
          "internalType": "uint256",
          "name": "bid",
          "type": "uint256"
        }
      ],
      "name": "placeBid",
      "outputs": [],
      "payable": true,
      "stateMutability": "payable",
      "type": "function"
    },
    {
      "constant": true,
      "inputs": [],
      "name": "getClaimAmount",
      "outputs": [
        {
          "internalType": "uint256",
          "name": "",
          "type": "uint256"
        }
      ],
      "payable": false,
      "stateMutability": "view",
      "type": "function"
    },
    {
      "constant": false,
      "inputs": [],
      "name": "claimEthers",
      "outputs": [],
      "payable": false,
      "stateMutability": "nonpayable",
      "type": "function"
    },
    {
      "constant": true,
      "inputs": [],
      "name": "canBidEnd",
      "outputs": [
        {
          "internalType": "bool",
          "name": "",
          "type": "bool"
        }
      ],
      "payable": false,
      "stateMutability": "view",
      "type": "function"
    },
    {
      "constant": false,
      "inputs": [],
      "name": "endBidding",
      "outputs": [],
      "payable": false,
      "stateMutability": "nonpayable",
      "type": "function"
    }
  ],
  "bytecode": "0x60806040523480156200001157600080fd5b506040516200100d3803806200100d833981810160405260808110156200003757600080fd5b81019080805160405193929190846401000000008211156200005857600080fd5b838201915060208201858111156200006f57600080fd5b82518660018202830111640100000000821117156200008d57600080fd5b8083526020830192505050908051906020019080838360005b83811015620000c3578082015181840152602081019050620000a6565b50505050905090810190601f168015620000f15780820380516001836020036101000a031916815260200191505b50604052602001805160405193929190846401000000008211156200011557600080fd5b838201915060208201858111156200012c57600080fd5b82518660018202830111640100000000821117156200014a57600080fd5b8083526020830192505050908051906020019080838360005b838110156200018057808201518184015260208101905062000163565b50505050905090810190601f168015620001ae5780820380516001836020036101000a031916815260200191505b506040526020018051906020019092919080519060200190929190505050336000806101000a81548173ffffffffffffffffffffffffffffffffffffffff021916908373ffffffffffffffffffffffffffffffffffffffff1602179055508360019080519060200190620002249291906200025d565b5082600290805190602001906200023d9291906200025d565b50816003819055508060048190555042600581905550505050506200030c565b828054600181600116156101000203166002900490600052602060002090601f016020900481019282601f10620002a057805160ff1916838001178555620002d1565b82800160010185558215620002d1579182015b82811115620002d0578251825591602001919060010190620002b3565b5b509050620002e09190620002e4565b5090565b6200030991905b8082111562000305576000816000905550600101620002eb565b5090565b90565b610cf1806200031c6000396000f3fe6080604052600436106100555760003560e01c80631a81d59c1461005a5780635df3e96e146100715780636931b550146100a057806371127ed2146100b757806374a9d460146100e2578063a7eaa2411461010d575b600080fd5b34801561006657600080fd5b5061006f6101d2565b005b34801561007d57600080fd5b506100866102ce565b604051808215151515815260200191505060405180910390f35b3480156100ac57600080fd5b506100b5610305565b005b3480156100c357600080fd5b506100cc610516565b6040518082815260200191505060405180910390f35b3480156100ee57600080fd5b506100f7610685565b6040518082815260200191505060405180910390f35b6101d06004803603604081101561012357600080fd5b810190808035906020019064010000000081111561014057600080fd5b82018360208201111561015257600080fd5b8035906020019184600183028401116401000000008311171561017457600080fd5b91908080601f016020809104026020016040519081016040528093929190818152602001838380828437600081840152601f19601f82011690508083019250505050505050919291929080359060200190929190505050610692565b005b6000809054906101000a900473ffffffffffffffffffffffffffffffffffffffff1673ffffffffffffffffffffffffffffffffffffffff163373ffffffffffffffffffffffffffffffffffffffff1614610294576040517f08c379a00000000000000000000000000000000000000000000000000000000081526004018080602001828103825260098152602001807f4e6f74204f776e6572000000000000000000000000000000000000000000000081525060200191505060405180910390fd5b6000809054906101000a900473ffffffffffffffffffffffffffffffffffffffff1673ffffffffffffffffffffffffffffffffffffffff16ff5b60008060068054905014156102fd57600354600554420310156102f45760019050610302565b60009050610302565b600090505b90565b60008090505b6006805490508110156104a7576006818154811061032557fe5b906000526020600020906004020160000160009054906101000a900473ffffffffffffffffffffffffffffffffffffffff1673ffffffffffffffffffffffffffffffffffffffff163373ffffffffffffffffffffffffffffffffffffffff16141561049a57600015156006828154811061039b57fe5b906000526020600020906004020160030160009054906101000a900460ff1615151415610499573373ffffffffffffffffffffffffffffffffffffffff166108fc600683815481106103e957fe5b9060005260206000209060040201600201549081150290604051600060405180830381858888f19350505050158015610426573d6000803e3d6000fd5b506006818154811061043457fe5b9060005260206000209060040201600080820160006101000a81549073ffffffffffffffffffffffffffffffffffffffff021916905560018201600061047a9190610b4f565b60028201600090556003820160006101000a81549060ff021916905550505b5b808060010191505061030b565b506040517f08c379a00000000000000000000000000000000000000000000000000000000081526004018080602001828103825260138152602001807f4e6f20626964646572732066726f6d20796f750000000000000000000000000081525060200191505060405180910390fd5b600080600090505b600680549050811015610613576006818154811061053857fe5b906000526020600020906004020160000160009054906101000a900473ffffffffffffffffffffffffffffffffffffffff1673ffffffffffffffffffffffffffffffffffffffff163373ffffffffffffffffffffffffffffffffffffffff1614156106065760001515600682815481106105ae57fe5b906000526020600020906004020160030160009054906101000a900460ff16151514156105fc57600681815481106105e257fe5b906000526020600020906004020160020154915050610682565b6000915050610682565b808060010191505061051e565b506040517f08c379a00000000000000000000000000000000000000000000000000000000081526004018080602001828103825260138152602001807f4e6f20626964646572732066726f6d20796f750000000000000000000000000081525060200191505060405180910390fd5b90565b6000600760020154905090565b60035460055442031061070d576040517f08c379a00000000000000000000000000000000000000000000000000000000081526004018080602001828103825260108152602001807f436f6e747261637420657870697265640000000000000000000000000000000081525060200191505060405180910390fd5b600060076002015490508082116108f3577f78e4af5a65fa12d6f9fbdef252f3f396da547eb76c44f19f2c58c53ec2d59a3a338484604051808473ffffffffffffffffffffffffffffffffffffffff1673ffffffffffffffffffffffffffffffffffffffff16815260200180602001838152602001828103825284818151815260200191508051906020019080838360005b838110156107ba57808201518184015260208101905061079f565b50505050905090810190601f1680156107e75780820380516001836020036101000a031916815260200191505b5094505050505060405180910390a1600660405180608001604052803373ffffffffffffffffffffffffffffffffffffffff168152602001858152602001848152602001600015158152509080600181540180825580915050906001820390600052602060002090600402016000909192909190915060008201518160000160006101000a81548173ffffffffffffffffffffffffffffffffffffffff021916908373ffffffffffffffffffffffffffffffffffffffff16021790555060208201518160010190805190602001906108c0929190610b97565b506040820151816002015560608201518160030160006101000a81548160ff021916908315150217905550505050610b4a565b600660405180608001604052803373ffffffffffffffffffffffffffffffffffffffff168152602001858152602001848152602001600015158152509080600181540180825580915050906001820390600052602060002090600402016000909192909190915060008201518160000160006101000a81548173ffffffffffffffffffffffffffffffffffffffff021916908373ffffffffffffffffffffffffffffffffffffffff16021790555060208201518160010190805190602001906109bd929190610b97565b506040820151816002015560608201518160030160006101000a81548160ff02191690831515021790555050505033600760000160006101000a81548173ffffffffffffffffffffffffffffffffffffffff021916908373ffffffffffffffffffffffffffffffffffffffff1602179055508260076001019080519060200190610a48929190610c17565b50816007600201819055506000600760030160006101000a81548160ff0219169083151502179055507fd98a11da4f343254d2c8b1b71a4660cf725590d214f1732ae2b6d7a65ed74dae338484604051808473ffffffffffffffffffffffffffffffffffffffff1673ffffffffffffffffffffffffffffffffffffffff16815260200180602001838152602001828103825284818151815260200191508051906020019080838360005b83811015610b0d578082015181840152602081019050610af2565b50505050905090810190601f168015610b3a5780820380516001836020036101000a031916815260200191505b5094505050505060405180910390a15b505050565b50805460018160011615610100020316600290046000825580601f10610b755750610b94565b601f016020900490600052602060002090810190610b939190610c97565b5b50565b828054600181600116156101000203166002900490600052602060002090601f016020900481019282601f10610bd857805160ff1916838001178555610c06565b82800160010185558215610c06579182015b82811115610c05578251825591602001919060010190610bea565b5b509050610c139190610c97565b5090565b828054600181600116156101000203166002900490600052602060002090601f016020900481019282601f10610c5857805160ff1916838001178555610c86565b82800160010185558215610c86579182015b82811115610c85578251825591602001919060010190610c6a565b5b509050610c939190610c97565b5090565b610cb991905b80821115610cb5576000816000905550600101610c9d565b5090565b9056fea265627a7a723158206ae19a69223afb211d2aa9335bb8b4449110dcdf5f297770efc049e51c2b381864736f6c63430005100032",
  "source": "pragma solidity >=0.4.21 <0.7.0;\n\ncontract Bidding{\n\n    address payable owner;\n    string name;\n    string description;\n    uint duration;\n    uint startBid;\n\n    uint createdAt;\n\n    struct Bidder{\n        address bidder;\n        string name;\n        uint bidAmount;\n        bool claimedEthers;\n    }\n\n    //Store all bidders\n    Bidder[] bidders;\n\n    //Store the High Bidder\n    Bidder highBidder;\n\n    //Events\n    event HighBidChanged(address addr, string nm, uint newHighBid);\n    event BidFail(address addr, string nm, uint bidAmt);\n\n    modifier OwnerOnly{require(msg.sender == owner, \"Not Owner\");_;}\n\n\n    constructor(string memory nm, string memory desc, uint dur, uint sBid) public {\n        owner = msg.sender;\n        name = nm;\n        description = desc;\n        duration = dur;\n        startBid = sBid;\n        createdAt = now;\n    }\n\n    function getHighBid() public view returns(uint){\n        return highBidder.bidAmount;\n    }\n\n    function placeBid(string memory name, uint bid) public payable{\n        require((now - createdAt) < duration, \"Contract expired\");\n\n        uint currentBid = highBidder.bidAmount;\n        if(bid <= currentBid){\n            emit BidFail(msg.sender, name, bid);\n            bidders.push(Bidder(msg.sender, name, bid, false));\n        }else{\n            bidders.push(Bidder(msg.sender, name, bid, false));\n            highBidder.bidder = msg.sender;\n            highBidder.name = name;\n            highBidder.bidAmount = bid;\n            highBidder.claimedEthers = false;\n            emit HighBidChanged(msg.sender, name, bid);\n        }\n    }\n\n    function getClaimAmount() public view returns (uint) {\n        for(uint i = 0 ; i < bidders.length ; i++){\n            if(msg.sender == bidders[i].bidder){\n                if(bidders[i].claimedEthers == false){\n                    return bidders[i].bidAmount;\n                }else{\n                    return 0;\n                }\n            }\n        }\n        revert(\"No bidders from you\");\n    }\n\n    function claimEthers() public {\n        for(uint i = 0 ; i < bidders.length ; i++){\n            if(msg.sender == bidders[i].bidder){\n                if(bidders[i].claimedEthers == false){\n                    msg.sender.transfer(bidders[i].bidAmount);\n                    delete(bidders[i]);\n                }\n            }\n        }\n        revert(\"No bidders from you\");\n    }\n\n    function canBidEnd() public view returns (bool) {\n        if(bidders.length == 0){\n            if((now - createdAt) < duration){\n                return true;\n            }else{\n                return false;\n            }\n        }else {\n            return false;\n        }\n    }\n\n    function endBidding() public OwnerOnly{\n        selfdestruct(owner);\n    }\n\n}",
  "sourcePath": "/Users/pauloneto/Documents/Blockchain Course/BiddingApp/contracts/Bidding.sol",
  "compiler": {
    "name": "solc",
    "version": "0.5.16+commit.9c3226ce.Emscripten.clang"
  },
  "schemaVersion": "3.1.0",
  "updatedAt": "2020-05-12T13:57:48.622Z",
  "networkType": "ethereum",
  "devdoc": {
    "methods": {}
  },
  "userdoc": {
    "methods": {}
  }
}